{
  "abi": [
    {
      "inputs": [
        {
          "internalType": "int256",
          "name": "",
          "type": "int256"
        },
        {
          "internalType": "int256",
          "name": "",
          "type": "int256"
        },
        {
          "internalType": "uint256",
          "name": "",
          "type": "uint256"
        },
        {
          "internalType": "int256",
          "name": "",
          "type": "int256"
        }
      ],
      "name": "getCurrentInterestRate",
      "outputs": [
        {
          "internalType": "int256",
          "name": "",
          "type": "int256"
        }
      ],
      "stateMutability": "pure",
      "type": "function"
    }
  ],
  "bytecode": {
    "object": "0x608060405234801561001057600080fd5b5061016b806100206000396000f3fe608060405234801561001057600080fd5b506004361061002b5760003560e01c806392b106cc14610030575b600080fd5b61004361003e36600461007b565b610055565b60405190815260200160405180910390f35b600060646100686305f5e10060016100c3565b61007291906100f9565b95945050505050565b6000806000806080858703121561009157600080fd5b5050823594602084013594506040840135936060013592509050565b634e487b7160e01b600052601160045260246000fd5b80820260008212600160ff1b841416156100df576100df6100ad565b81810583148215176100f3576100f36100ad565b92915050565b60008261011657634e487b7160e01b600052601260045260246000fd5b600160ff1b821460001984141615610130576101306100ad565b50059056fea264697066735822122045021263337d3acb75b155441218a5b52ed9ef85179cc0b454bfb9d843ac637464736f6c63430008130033",
    "linkReferences": {}
  },
  "methodIdentifiers": {
    "getCurrentInterestRate(int256,int256,uint256,int256)": "92b106cc"
  },
  "id": 21
}