{
  "abi": [
    {
      "inputs": [
        {
          "internalType": "int256",
          "name": "_marginRequirement",
          "type": "int256"
        },
        {
          "internalType": "address",
          "name": "_interestRateModel",
          "type": "address"
        }
      ],
      "stateMutability": "nonpayable",
      "type": "constructor"
    },
    {
      "inputs": [],
      "name": "BLOCKS_PER_YEAR",
      "outputs": [
        {
          "internalType": "int256",
          "name": "",
          "type": "int256"
        }
      ],
      "stateMutability": "view",
      "type": "function"
    },
    {
      "inputs": [],
      "name": "INTERNAL_DECIMALS",
      "outputs": [
        {
          "internalType": "uint256",
          "name": "",
          "type": "uint256"
        }
      ],
      "stateMutability": "view",
      "type": "function"
    },
    {
      "inputs": [],
      "name": "INTERNAL_SCALAR",
      "outputs": [
        {
          "internalType": "int256",
          "name": "",
          "type": "int256"
        }
      ],
      "stateMutability": "view",
      "type": "function"
    },
    {
      "inputs": [
        {
          "internalType": "address",
          "name": "_token",
          "type": "address"
        },
        {
          "internalType": "int256",
          "name": "_exchangeRate",
          "type": "int256"
        }
      ],
      "name": "addToken",
      "outputs": [],
      "stateMutability": "nonpayable",
      "type": "function"
    },
    {
      "inputs": [],
      "name": "admin",
      "outputs": [
        {
          "internalType": "address",
          "name": "",
          "type": "address"
        }
      ],
      "stateMutability": "view",
      "type": "function"
    },
    {
      "inputs": [
        {
          "internalType": "uint256",
          "name": "",
          "type": "uint256"
        }
      ],
      "name": "allTokens",
      "outputs": [
        {
          "internalType": "address",
          "name": "",
          "type": "address"
        }
      ],
      "stateMutability": "view",
      "type": "function"
    },
    {
      "inputs": [
        {
          "internalType": "address",
          "name": "",
          "type": "address"
        },
        {
          "internalType": "address",
          "name": "",
          "type": "address"
        }
      ],
      "name": "balances",
      "outputs": [
        {
          "internalType": "int256",
          "name": "",
          "type": "int256"
        }
      ],
      "stateMutability": "view",
      "type": "function"
    },
    {
      "inputs": [
        {
          "internalType": "address",
          "name": "_user",
          "type": "address"
        },
        {
          "internalType": "address",
          "name": "_tokenToChange",
          "type": "address"
        },
        {
          "internalType": "int256",
          "name": "_amountToChange",
          "type": "int256"
        }
      ],
      "name": "collateralizationRatio",
      "outputs": [
        {
          "internalType": "int256",
          "name": "",
          "type": "int256"
        }
      ],
      "stateMutability": "view",
      "type": "function"
    },
    {
      "inputs": [
        {
          "internalType": "address",
          "name": "_user",
          "type": "address"
        }
      ],
      "name": "collateralizationRatio",
      "outputs": [
        {
          "internalType": "int256",
          "name": "",
          "type": "int256"
        }
      ],
      "stateMutability": "view",
      "type": "function"
    },
    {
      "inputs": [
        {
          "internalType": "address",
          "name": "_token",
          "type": "address"
        }
      ],
      "name": "compoundInterest",
      "outputs": [],
      "stateMutability": "nonpayable",
      "type": "function"
    },
    {
      "inputs": [
        {
          "internalType": "address",
          "name": "_user",
          "type": "address"
        },
        {
          "internalType": "address",
          "name": "_token",
          "type": "address"
        }
      ],
      "name": "currentBalance",
      "outputs": [
        {
          "internalType": "int256",
          "name": "",
          "type": "int256"
        }
      ],
      "stateMutability": "view",
      "type": "function"
    },
    {
      "inputs": [
        {
          "internalType": "address",
          "name": "_user",
          "type": "address"
        },
        {
          "internalType": "address",
          "name": "_token",
          "type": "address"
        }
      ],
      "name": "currentUsdValue",
      "outputs": [
        {
          "internalType": "int256",
          "name": "",
          "type": "int256"
        }
      ],
      "stateMutability": "view",
      "type": "function"
    },
    {
      "inputs": [
        {
          "internalType": "address",
          "name": "_token",
          "type": "address"
        },
        {
          "internalType": "int256",
          "name": "amount",
          "type": "int256"
        }
      ],
      "name": "deflate",
      "outputs": [
        {
          "internalType": "int256",
          "name": "",
          "type": "int256"
        }
      ],
      "stateMutability": "view",
      "type": "function"
    },
    {
      "inputs": [
        {
          "internalType": "address",
          "name": "_token",
          "type": "address"
        },
        {
          "internalType": "int256",
          "name": "_amount",
          "type": "int256"
        }
      ],
      "name": "deposit",
      "outputs": [],
      "stateMutability": "nonpayable",
      "type": "function"
    },
    {
      "inputs": [
        {
          "internalType": "address",
          "name": "_token",
          "type": "address"
        }
      ],
      "name": "getInterestIndex",
      "outputs": [
        {
          "internalType": "int256",
          "name": "",
          "type": "int256"
        }
      ],
      "stateMutability": "view",
      "type": "function"
    },
    {
      "inputs": [
        {
          "internalType": "address",
          "name": "_token",
          "type": "address"
        }
      ],
      "name": "getUtilization",
      "outputs": [
        {
          "internalType": "int256",
          "name": "",
          "type": "int256"
        }
      ],
      "stateMutability": "view",
      "type": "function"
    },
    {
      "inputs": [
        {
          "internalType": "address",
          "name": "_token",
          "type": "address"
        },
        {
          "internalType": "int256",
          "name": "amount",
          "type": "int256"
        }
      ],
      "name": "inflate",
      "outputs": [
        {
          "internalType": "int256",
          "name": "",
          "type": "int256"
        }
      ],
      "stateMutability": "view",
      "type": "function"
    },
    {
      "inputs": [],
      "name": "interestRateModel",
      "outputs": [
        {
          "internalType": "contract InterestRateModel",
          "name": "",
          "type": "address"
        }
      ],
      "stateMutability": "view",
      "type": "function"
    },
    {
      "inputs": [
        {
          "internalType": "address",
          "name": "_user",
          "type": "address"
        }
      ],
      "name": "liquidate",
      "outputs": [],
      "stateMutability": "nonpayable",
      "type": "function"
    },
    {
      "inputs": [],
      "name": "marginRequirement",
      "outputs": [
        {
          "internalType": "int256",
          "name": "",
          "type": "int256"
        }
      ],
      "stateMutability": "view",
      "type": "function"
    },
    {
      "inputs": [
        {
          "internalType": "address",
          "name": "_token",
          "type": "address"
        },
        {
          "internalType": "int256",
          "name": "amount",
          "type": "int256"
        }
      ],
      "name": "toUsd",
      "outputs": [
        {
          "internalType": "int256",
          "name": "",
          "type": "int256"
        }
      ],
      "stateMutability": "view",
      "type": "function"
    },
    {
      "inputs": [
        {
          "internalType": "address",
          "name": "",
          "type": "address"
        }
      ],
      "name": "tokenData",
      "outputs": [
        {
          "internalType": "contract ERC20",
          "name": "theContract",
          "type": "address"
        },
        {
          "internalType": "int256",
          "name": "exchangeRate",
          "type": "int256"
        },
        {
          "internalType": "int256",
          "name": "index",
          "type": "int256"
        },
        {
          "internalType": "uint256",
          "name": "blockStart",
          "type": "uint256"
        },
        {
          "internalType": "int256",
          "name": "debt",
          "type": "int256"
        },
        {
          "internalType": "int256",
          "name": "totalDeposits",
          "type": "int256"
        },
        {
          "internalType": "int256",
          "name": "currentInterestRate",
          "type": "int256"
        }
      ],
      "stateMutability": "view",
      "type": "function"
    },
    {
      "inputs": [
        {
          "internalType": "address",
          "name": "_token",
          "type": "address"
        },
        {
          "internalType": "int256",
          "name": "_exchangeRate",
          "type": "int256"
        }
      ],
      "name": "updateExchangeRate",
      "outputs": [],
      "stateMutability": "nonpayable",
      "type": "function"
    },
    {
      "inputs": [
        {
          "internalType": "address",
          "name": "_token",
          "type": "address"
        },
        {
          "internalType": "int256",
          "name": "amount",
          "type": "int256"
        }
      ],
      "name": "withdraw",
      "outputs": [],
      "stateMutability": "nonpayable",
      "type": "function"
    }
  ],
  "bytecode": {
    "object": "0x608060405234801561001057600080fd5b50604051611ceb380380611ceb83398101604081905261002f91610065565b60048054336001600160a01b031991821617909155600392909255600580549092166001600160a01b03919091161790556100a2565b6000806040838503121561007857600080fd5b825160208401519092506001600160a01b038116811461009757600080fd5b809150509250929050565b611c3a806100b16000396000f3fe608060405234801561001057600080fd5b50600436106101585760003560e01c8063bc05b062116100c3578063d3e68bd91161007c578063d3e68bd91461035b578063d9a64e661461036e578063f3fdb15a14610376578063f851a44014610389578063fb3b43f01461039c578063fdce8643146103af57600080fd5b8063bc05b062146102e5578063be406e6c146102f8578063c23f001f14610300578063ccd45a011461032b578063cf17c1c21461033e578063d37db1d21461035157600080fd5b80635b112186116101155780635b1121861461025b5780635d5a78b11461026e578063634282af146102815780637da7d3f1146102ac578063983bc49d146102bf578063aec7f6f3146102d257600080fd5b80631a8dea361461015d57806327e45c2c146101725780632d4fbf041461020b5780632f8655681461022257806347a02dca14610235578063571c3a2e14610248575b600080fd5b61017061016b366004611889565b6103c2565b005b6101c76101803660046118b3565b60006020819052908152604090208054600182015460028301546003840154600485015460058601546006909601546001600160a01b039095169593949293919290919087565b604080516001600160a01b0390981688526020880196909652948601939093526060850191909152608084015260a083015260c082015260e0015b60405180910390f35b61021460035481565b604051908152602001610202565b6101706102303660046118b3565b610583565b610214610243366004611889565b61088f565b610170610256366004611889565b61097e565b6102146102693660046118ce565b610a01565b61021461027c366004611889565b610bcd565b61029461028f36600461190a565b610c39565b6040516001600160a01b039091168152602001610202565b6101706102ba366004611889565b610c63565b6102146102cd366004611923565b611046565b6101706102e03660046118b3565b6110d7565b6102146102f33660046118b3565b6113be565b610214600881565b61021461030e366004611923565b600260209081526000928352604080842090915290825290205481565b610214610339366004611889565b611437565b61017061034c366004611889565b6114a3565b6102146227c41481565b610214610369366004611923565b611627565b6102146116d5565b600554610294906001600160a01b031681565b600454610294906001600160a01b031681565b6102146103aa3660046118b3565b6116e4565b6102146103bd3660046118b3565b61173d565b6001600160a01b03821660009081526020819052604081206002015490036104055760405162461bcd60e51b81526004016103fc90611956565b60405180910390fd5b6000811361044f5760405162461bcd60e51b8152602060048201526017602482015276616d6f756e74206d75737420626520706f73697469766560481b60448201526064016103fc565b6001600160a01b038216600090815260026020908152604080832033845290915281208054839290610482908490611995565b90915550506001600160a01b038216600090815260208190526040812060050180548392906104b2908490611995565b90915550506001600160a01b03828116600090815260208190526040908190205490516323b872dd60e01b8152336004820152306024820152604481018490529116906323b872dd906064016020604051808303816000875af115801561051d573d6000803e3d6000fd5b505050506040513d601f19601f8201168201806040525081019061054191906119bd565b61057f5760405162461bcd60e51b815260206004820152600f60248201526e1d1c985b9cd9995c8819985a5b1959608a1b60448201526064016103fc565b5050565b600354604051635e02d83160e11b8152336004820152309063bc05b06290602401602060405180830381865afa1580156105c1573d6000803e3d6000fd5b505050506040513d601f19601f820116820180604052508101906105e591906119df565b121561063d5760405162461bcd60e51b815260206004820152602160248201527f6c697175696461746f7220697320756e646572636f6c6c61746572616c697a656044820152601960fa1b60648201526084016103fc565b600354604051635e02d83160e11b81526001600160a01b0383166004820152309063bc05b06290602401602060405180830381865afa158015610684573d6000803e3d6000fd5b505050506040513d601f19601f820116820180604052508101906106a891906119df565b126107075760405162461bcd60e51b815260206004820152602960248201527f746865206c697175696461746565206973206e6f7420756e646572636f6c6c616044820152681d195c985b1a5e995960ba1b60648201526084016103fc565b60005b6001548110156107b557600060018281548110610729576107296119f8565b6000918252602080832091909101546001600160a01b0390811680845260028352604080852092881685529190925280832054338452908320805492945090929091610776908490611995565b90915550506001600160a01b039081166000908152600260209081526040808320938616835292905290812055806107ad81611a0e565b91505061070a565b50600354604051635e02d83160e11b8152336004820152309063bc05b06290602401602060405180830381865afa1580156107f4573d6000803e3d6000fd5b505050506040513d601f19601f8201168201806040525081019061081891906119df565b121561088c5760405162461bcd60e51b815260206004820152603f60248201527f6c697175696461746f7220697320756e646572636f6c6c61746572616c697a6560448201527f642061667465722074616b696e67206f76657220746865206163636f756e740060648201526084016103fc565b50565b6001600160a01b03821660009081526020819052604081206002015481036108c95760405162461bcd60e51b81526004016103fc90611956565b6001600160a01b038084166000908152602081815260409182902054825163313ce56760e01b8152925193169263313ce5679260048082019392918290030181865afa15801561091d573d6000803e3d6000fd5b505050506040513d601f19601f820116820180604052508101906109419190611a27565b6001600160a01b03841660009081526020819052604081206001015491900b9061096b9084611a4a565b6109759190611a7a565b90505b92915050565b6004546001600160a01b031633146109a85760405162461bcd60e51b81526004016103fc90611ab6565b6001600160a01b03821660009081526020819052604081206002015490036109e25760405162461bcd60e51b81526004016103fc90611956565b6001600160a01b03909116600090815260208190526040902060010155565b60008080805b600154811015610b8b57600060018281548110610a2657610a266119f8565b600091825260208220015460405163983bc49d60e01b81526001600160a01b038b81166004830152909116602482018190529250309063983bc49d90604401602060405180830381865afa158015610a82573d6000803e3d6000fd5b505050506040513d601f19601f82011682018060405250810190610aa691906119df565b9050876001600160a01b0316826001600160a01b031603610ace57610acb8782611995565b90505b6040516323d016e560e11b81526001600160a01b03831660048201526024810182905260009030906347a02dca90604401602060405180830381865afa158015610b1c573d6000803e3d6000fd5b505050506040513d601f19601f82011682018060405250810190610b4091906119df565b90506000811315610b5c57610b558187611995565b9550610b75565b610b6881600019611a4a565b610b729086611995565b94505b5050508080610b8390611a0e565b915050610a07565b5080600003610ba05760035492505050610bc6565b80610bad6008600a611bbe565b610bb79084611a4a565b610bc19190611a7a565b925050505b9392505050565b6001600160a01b0382166000908152602081905260408120600201548103610c075760405162461bcd60e51b81526004016103fc90611956565b610c136008600a611bbe565b6001600160a01b03841660009081526020819052604090206002015461096b9084611a4a565b60018181548110610c4957600080fd5b6000918252602090912001546001600160a01b0316905081565b6001600160a01b0382166000908152602081905260408120600201549003610c9d5760405162461bcd60e51b81526004016103fc90611956565b60008113610ce75760405162461bcd60e51b8152602060048201526017602482015276616d6f756e74206d75737420626520706f73697469766560481b60448201526064016103fc565b60035430635b1121863385610cfe86600019611a4a565b6040516001600160e01b031960e086901b1681526001600160a01b0393841660048201529290911660248301526044820152606401602060405180830381865afa158015610d50573d6000803e3d6000fd5b505050506040513d601f19601f82011682018060405250810190610d7491906119df565b1215610db85760405162461bcd60e51b81526020600482015260136024820152721d5b99195c98dbdb1b185d195c985b1a5e9959606a1b60448201526064016103fc565b60405163ccd45a0160e01b81526001600160a01b038316600482015260248101829052309063ccd45a0190604401602060405180830381865afa158015610e03573d6000803e3d6000fd5b505050506040513d601f19601f82011682018060405250810190610e2791906119df565b6001600160a01b038316600090815260026020908152604080832033845290915281208054909190610e5a908490611bca565b909155505060405163983bc49d60e01b81523360048201526001600160a01b0383166024820152600090309063983bc49d90604401602060405180830381865afa158015610eac573d6000803e3d6000fd5b505050506040513d601f19601f82011682018060405250810190610ed091906119df565b9050818112610f0f576001600160a01b03831660009081526020819052604081206005018054849290610f04908490611bca565b90915550610f7b9050565b6001600160a01b03831660009081526020819052604081206005018054839290610f3a908490611bca565b90915550610f4a90508183611bca565b6001600160a01b03841660009081526020819052604081206004018054909190610f75908490611995565b90915550505b6001600160a01b0383811660009081526020819052604080822054905163a9059cbb60e01b8152336004820152602481018690529192169063a9059cbb906044016020604051808303816000875af1158015610fdb573d6000803e3d6000fd5b505050506040513d601f19601f82011682018060405250810190610fff91906119bd565b9050806110405760405162461bcd60e51b815260206004820152600f60248201526e1d1c985b9cd9995c8819985a5b1959608a1b60448201526064016103fc565b50505050565b6001600160a01b0381811660008181526002602090815260408083209487168352939052828120549251635d5a78b160e01b8152600481019290925260248201929092523090635d5a78b1906044015b602060405180830381865afa1580156110b3573d6000803e3d6000fd5b505050506040513d601f19601f8201168201806040525081019061097591906119df565b6001600160a01b03811660009081526020819052604081206002015490036111115760405162461bcd60e51b81526004016103fc90611956565b6004546001600160a01b0316331461113b5760405162461bcd60e51b81526004016103fc90611ab6565b6005546001600160a01b03166111935760405162461bcd60e51b815260206004820152601b60248201527f696e7465726573742072617465206d6f64656c206e6f7420736574000000000060448201526064016103fc565b60405163fdce864360e01b81526001600160a01b0382166004820152600090309063fdce864390602401602060405180830381865afa1580156111da573d6000803e3d6000fd5b505050506040513d601f19601f820116820180604052508101906111fe91906119df565b6005549091506000906001600160a01b03166392b106cc83600a611223600882611bbe565b61122e906008611a4a565b6112389190611a7a565b6001600160a01b03871660009081526020819052604090206003015461125e9043611bf1565b6001600160a01b0388166000908152602081905260409081902060060154905160e086901b6001600160e01b03191681526004810194909452602484019290925260448301526064820152608401602060405180830381865afa1580156112c9573d6000803e3d6000fd5b505050506040513d601f19601f820116820180604052508101906112ed91906119df565b6001600160a01b038416600090815260208190526040812060030154919250906113179043611bf1565b905060006227c4146113298385611a4a565b6113339190611a7a565b9050600061134c826113476008600a611bbe565b6117f9565b905061135a6008600a611bbe565b6001600160a01b038716600090815260208190526040902060020154611381908390611a4a565b61138b9190611a7a565b6001600160a01b039096166000908152602081905260409020600281019690965550505060068301555043600390910155565b604051632d8890c360e11b81526001600160a01b038216600482015260006024820181905260448201819052903090635b11218690606401602060405180830381865afa158015611413573d6000803e3d6000fd5b505050506040513d601f19601f8201168201806040525081019061097891906119df565b6001600160a01b03821660009081526020819052604081206002015481036114715760405162461bcd60e51b81526004016103fc90611956565b6001600160a01b0383166000908152602081905260409020600201546114996008600a611bbe565b61096b9084611a4a565b6004546001600160a01b031633146114cd5760405162461bcd60e51b81526004016103fc90611ab6565b6001600160a01b0382166000908152602081905260409020600201541561152c5760405162461bcd60e51b81526020600482015260136024820152721d1bdad95b88185b1c9958591e481859191959606a1b60448201526064016103fc565b60006040518060e00160405280846001600160a01b031681526020018381526020016008600a61155c9190611bbe565b81524360208083019190915260006040808401829052606080850183905260809485018390526001600160a01b03988916808452838552828420875181549b166001600160a01b03199b8c161781559487015160018087019190915592870151600286015590860151600385015593850151600484015560a0850151600584015560c090940151600690920191909155825480840184559290527fb10e2d527612073b26eecdfd717e6a320cf44b4afac2b0732d9fcbe2b7fa0cf69091018054909416179092555050565b60405163983bc49d60e01b81526001600160a01b0380841660048301528216602482015260009030906347a02dca908490839063983bc49d90604401602060405180830381865afa158015611680573d6000803e3d6000fd5b505050506040513d601f19601f820116820180604052508101906116a491906119df565b6040516001600160e01b031960e085901b1681526001600160a01b0390921660048301526024820152604401611096565b6116e16008600a611bbe565b81565b6001600160a01b038116600090815260208190526040812060020154810361171e5760405162461bcd60e51b81526004016103fc90611956565b506001600160a01b031660009081526020819052604090206002015490565b6001600160a01b03811660009081526020819052604081206002015481036117775760405162461bcd60e51b81526004016103fc90611956565b6001600160a01b03821660009081526020819052604081206005015490036117a157506000919050565b6001600160a01b0382166000908152602081905260409020600501546117c96008600a611bbe565b6001600160a01b0384166000908152602081905260409020600401546117ef9190611a4a565b6109789190611a7a565b600081611807816006611a4a565b6118119190611a4a565b8361181c8180611a4a565b6118269190611a4a565b6118309190611a7a565b61183b836002611a4a565b6118458580611a4a565b61184f9190611a7a565b6118598585611995565b6118639190611995565b6109759190611995565b80356001600160a01b038116811461188457600080fd5b919050565b6000806040838503121561189c57600080fd5b6118a58361186d565b946020939093013593505050565b6000602082840312156118c557600080fd5b6109758261186d565b6000806000606084860312156118e357600080fd5b6118ec8461186d565b92506118fa6020850161186d565b9150604084013590509250925092565b60006020828403121561191c57600080fd5b5035919050565b6000806040838503121561193657600080fd5b61193f8361186d565b915061194d6020840161186d565b90509250929050565b6020808252600f908201526e1d1bdad95b881b9bdd081859191959608a1b604082015260600190565b634e487b7160e01b600052601160045260246000fd5b80820182811260008312801582168215821617156119b5576119b561197f565b505092915050565b6000602082840312156119cf57600080fd5b81518015158114610bc657600080fd5b6000602082840312156119f157600080fd5b5051919050565b634e487b7160e01b600052603260045260246000fd5b600060018201611a2057611a2061197f565b5060010190565b600060208284031215611a3957600080fd5b815160ff81168114610bc657600080fd5b80820260008212600160ff1b84141615611a6657611a6661197f565b81810583148215176109785761097861197f565b600082611a9757634e487b7160e01b600052601260045260246000fd5b600160ff1b821460001984141615611ab157611ab161197f565b500590565b6020808252600a908201526937b7363c9030b236b4b760b11b604082015260600190565b600181815b80851115611b15578160001904821115611afb57611afb61197f565b80851615611b0857918102915b93841c9390800290611adf565b509250929050565b600082611b2c57506001610978565b81611b3957506000610978565b8160018114611b4f5760028114611b5957611b75565b6001915050610978565b60ff841115611b6a57611b6a61197f565b50506001821b610978565b5060208310610133831016604e8410600b8410161715611b98575081810a610978565b611ba28383611ada565b8060001904821115611bb657611bb661197f565b029392505050565b60006109758383611b1d565b8181036000831280158383131683831282161715611bea57611bea61197f565b5092915050565b818103818111156109785761097861197f56fea264697066735822122049ca268eb1ddbc8a15d69c58709dc2aa9d8f6ec15231aac1291ee09d8ada579364736f6c63430008130033",
    "linkReferences": {}
  },
  "methodIdentifiers": {
    "BLOCKS_PER_YEAR()": "d37db1d2",
    "INTERNAL_DECIMALS()": "be406e6c",
    "INTERNAL_SCALAR()": "d9a64e66",
    "addToken(address,int256)": "cf17c1c2",
    "admin()": "f851a440",
    "allTokens(uint256)": "634282af",
    "balances(address,address)": "c23f001f",
    "collateralizationRatio(address)": "bc05b062",
    "collateralizationRatio(address,address,int256)": "5b112186",
    "compoundInterest(address)": "aec7f6f3",
    "currentBalance(address,address)": "983bc49d",
    "currentUsdValue(address,address)": "d3e68bd9",
    "deflate(address,int256)": "ccd45a01",
    "deposit(address,int256)": "1a8dea36",
    "getInterestIndex(address)": "fb3b43f0",
    "getUtilization(address)": "fdce8643",
    "inflate(address,int256)": "5d5a78b1",
    "interestRateModel()": "f3fdb15a",
    "liquidate(address)": "2f865568",
    "marginRequirement()": "2d4fbf04",
    "toUsd(address,int256)": "47a02dca",
    "tokenData(address)": "27e45c2c",
    "updateExchangeRate(address,int256)": "571c3a2e",
    "withdraw(address,int256)": "7da7d3f1"
  },
  "id": 22
}